{
  "_format": "hh-sol-artifact-1",
  "contractName": "Faucet",
  "sourceName": "contracts/Faucet.sol",
  "abi": [
    {
      "inputs": [
        {
          "internalType": "address",
          "name": "tokenAddress",
          "type": "address"
        }
      ],
      "stateMutability": "payable",
      "type": "constructor"
    },
    {
      "inputs": [],
      "name": "InsufficientFaucetBalance",
      "type": "error"
    },
    {
      "inputs": [],
      "name": "OnlyownerCanCallThisFunction",
      "type": "error"
    },
    {
      "inputs": [],
      "name": "WaitForTheNextClaimTime",
      "type": "error"
    },
    {
      "inputs": [],
      "name": "ZeroAddressCannotCallThisFunction",
      "type": "error"
    },
    {
      "anonymous": false,
      "inputs": [
        {
          "indexed": true,
          "internalType": "address",
          "name": "from",
          "type": "address"
        },
        {
          "indexed": true,
          "internalType": "uint256",
          "name": "amount",
          "type": "uint256"
        }
      ],
      "name": "Deposited",
      "type": "event"
    },
    {
      "anonymous": false,
      "inputs": [
        {
          "indexed": true,
          "internalType": "address",
          "name": "to",
          "type": "address"
        },
        {
          "indexed": true,
          "internalType": "uint256",
          "name": "amount",
          "type": "uint256"
        }
      ],
      "name": "SuccessfullyWithdrawal",
      "type": "event"
    },
    {
      "inputs": [],
      "name": "getBalance",
      "outputs": [
        {
          "internalType": "uint256",
          "name": "",
          "type": "uint256"
        }
      ],
      "stateMutability": "view",
      "type": "function"
    },
    {
      "inputs": [],
      "name": "lockTime",
      "outputs": [
        {
          "internalType": "uint256",
          "name": "",
          "type": "uint256"
        }
      ],
      "stateMutability": "view",
      "type": "function"
    },
    {
      "inputs": [
        {
          "internalType": "address",
          "name": "",
          "type": "address"
        }
      ],
      "name": "nextRequestTime",
      "outputs": [
        {
          "internalType": "uint256",
          "name": "",
          "type": "uint256"
        }
      ],
      "stateMutability": "view",
      "type": "function"
    },
    {
      "inputs": [],
      "name": "requestToken",
      "outputs": [],
      "stateMutability": "nonpayable",
      "type": "function"
    },
    {
      "inputs": [
        {
          "internalType": "uint256",
          "name": "_newTime",
          "type": "uint256"
        }
      ],
      "name": "setLockTime",
      "outputs": [],
      "stateMutability": "nonpayable",
      "type": "function"
    },
    {
      "inputs": [
        {
          "internalType": "uint256",
          "name": "_amount",
          "type": "uint256"
        }
      ],
      "name": "setWithdrawAmount",
      "outputs": [],
      "stateMutability": "nonpayable",
      "type": "function"
    },
    {
      "inputs": [],
      "name": "token",
      "outputs": [
        {
          "internalType": "contract IERC20",
          "name": "",
          "type": "address"
        }
      ],
      "stateMutability": "view",
      "type": "function"
    },
    {
      "inputs": [],
      "name": "withdraw",
      "outputs": [],
      "stateMutability": "nonpayable",
      "type": "function"
    },
    {
      "inputs": [],
      "name": "withdrawAmount",
      "outputs": [
        {
          "internalType": "uint256",
          "name": "",
          "type": "uint256"
        }
      ],
      "stateMutability": "view",
      "type": "function"
    },
    {
      "stateMutability": "payable",
      "type": "receive"
    }
  ],
  "bytecode": "0x6080604052678ac7230489e80000600255603c600355604051610e81380380610e8183398181016040528101906100369190610120565b336000806101000a81548173ffffffffffffffffffffffffffffffffffffffff021916908373ffffffffffffffffffffffffffffffffffffffff16021790555080600160006101000a81548173ffffffffffffffffffffffffffffffffffffffff021916908373ffffffffffffffffffffffffffffffffffffffff1602179055505061014d565b600080fd5b600073ffffffffffffffffffffffffffffffffffffffff82169050919050565b60006100ed826100c2565b9050919050565b6100fd816100e2565b811461010857600080fd5b50565b60008151905061011a816100f4565b92915050565b600060208284031215610136576101356100bd565b5b60006101448482850161010b565b91505092915050565b610d258061015c6000396000f3fe60806040526004361061008a5760003560e01c8063534844a211610059578063534844a21461015e578063666841e914610189578063ae04d45d146101c6578063ceb04e29146101ef578063fc0c546a14610218576100d5565b80630d668087146100da57806312065fe0146101055780633ccfd60b146101305780634d7ec62814610147576100d5565b366100d557343373ffffffffffffffffffffffffffffffffffffffff167f2da466a7b24304f47e87fa2e1e5a81b9831ce54fec19055ce277ca2f39ba42c460405160405180910390a3005b600080fd5b3480156100e657600080fd5b506100ef610243565b6040516100fc91906109d2565b60405180910390f35b34801561011157600080fd5b5061011a610249565b60405161012791906109d2565b60405180910390f35b34801561013c57600080fd5b506101456102ec565b005b34801561015357600080fd5b5061015c61058e565b005b34801561016a57600080fd5b50610173610838565b60405161018091906109d2565b60405180910390f35b34801561019557600080fd5b506101b060048036038101906101ab9190610a50565b61083e565b6040516101bd91906109d2565b60405180910390f35b3480156101d257600080fd5b506101ed60048036038101906101e89190610aa9565b610856565b005b3480156101fb57600080fd5b5061021660048036038101906102119190610aa9565b6108f1565b005b34801561022457600080fd5b5061022d610993565b60405161023a9190610b35565b60405180910390f35b60035481565b6000600160009054906101000a900473ffffffffffffffffffffffffffffffffffffffff1673ffffffffffffffffffffffffffffffffffffffff166370a08231306040518263ffffffff1660e01b81526004016102a69190610b5f565b602060405180830381865afa1580156102c3573d6000803e3d6000fd5b505050506040513d601f19601f820116820180604052508101906102e79190610b8f565b905090565b60008054906101000a900473ffffffffffffffffffffffffffffffffffffffff1673ffffffffffffffffffffffffffffffffffffffff163373ffffffffffffffffffffffffffffffffffffffff1614610371576040517fdc4cd91c00000000000000000000000000000000000000000000000000000000815260040160405180910390fd5b600160009054906101000a900473ffffffffffffffffffffffffffffffffffffffff1673ffffffffffffffffffffffffffffffffffffffff166370a08231306040518263ffffffff1660e01b81526004016103cc9190610b5f565b602060405180830381865afa1580156103e9573d6000803e3d6000fd5b505050506040513d601f19601f8201168201806040525081019061040d9190610b8f565b3373ffffffffffffffffffffffffffffffffffffffff167ffb3e9b597487b5517150446f4ae80a2d7646d7cdb844a3f22777887e7183ec9f60405160405180910390a3600160009054906101000a900473ffffffffffffffffffffffffffffffffffffffff1673ffffffffffffffffffffffffffffffffffffffff1663a9059cbb33600160009054906101000a900473ffffffffffffffffffffffffffffffffffffffff1673ffffffffffffffffffffffffffffffffffffffff166370a08231306040518263ffffffff1660e01b81526004016104ea9190610b5f565b602060405180830381865afa158015610507573d6000803e3d6000fd5b505050506040513d601f19601f8201168201806040525081019061052b9190610b8f565b6040518363ffffffff1660e01b8152600401610548929190610bbc565b6020604051808303816000875af1158015610567573d6000803e3d6000fd5b505050506040513d601f19601f8201168201806040525081019061058b9190610c1d565b50565b600073ffffffffffffffffffffffffffffffffffffffff163373ffffffffffffffffffffffffffffffffffffffff16036105f4576040517f5a72882100000000000000000000000000000000000000000000000000000000815260040160405180910390fd5b600254600160009054906101000a900473ffffffffffffffffffffffffffffffffffffffff1673ffffffffffffffffffffffffffffffffffffffff166370a08231306040518263ffffffff1660e01b81526004016106529190610b5f565b602060405180830381865afa15801561066f573d6000803e3d6000fd5b505050506040513d601f19601f820116820180604052508101906106939190610b8f565b116106ca576040517f25bab55300000000000000000000000000000000000000000000000000000000815260040160405180910390fd5b600460003373ffffffffffffffffffffffffffffffffffffffff1673ffffffffffffffffffffffffffffffffffffffff168152602001908152602001600020544211610742576040517f392428e000000000000000000000000000000000000000000000000000000000815260040160405180910390fd5b600354426107509190610c79565b600460003373ffffffffffffffffffffffffffffffffffffffff1673ffffffffffffffffffffffffffffffffffffffff16815260200190815260200160002081905550600160009054906101000a900473ffffffffffffffffffffffffffffffffffffffff1673ffffffffffffffffffffffffffffffffffffffff1663a9059cbb336002546040518363ffffffff1660e01b81526004016107f2929190610bbc565b6020604051808303816000875af1158015610811573d6000803e3d6000fd5b505050506040513d601f19601f820116820180604052508101906108359190610c1d565b50565b60025481565b60046020528060005260406000206000915090505481565b60008054906101000a900473ffffffffffffffffffffffffffffffffffffffff1673ffffffffffffffffffffffffffffffffffffffff163373ffffffffffffffffffffffffffffffffffffffff16146108db576040517fdc4cd91c00000000000000000000000000000000000000000000000000000000815260040160405180910390fd5b603c816108e89190610cad565b60038190555050565b60008054906101000a900473ffffffffffffffffffffffffffffffffffffffff1673ffffffffffffffffffffffffffffffffffffffff163373ffffffffffffffffffffffffffffffffffffffff1614610976576040517fdc4cd91c00000000000000000000000000000000000000000000000000000000815260040160405180910390fd5b670de0b6b3a76400008161098a9190610cad565b60028190555050565b600160009054906101000a900473ffffffffffffffffffffffffffffffffffffffff1681565b6000819050919050565b6109cc816109b9565b82525050565b60006020820190506109e760008301846109c3565b92915050565b600080fd5b600073ffffffffffffffffffffffffffffffffffffffff82169050919050565b6000610a1d826109f2565b9050919050565b610a2d81610a12565b8114610a3857600080fd5b50565b600081359050610a4a81610a24565b92915050565b600060208284031215610a6657610a656109ed565b5b6000610a7484828501610a3b565b91505092915050565b610a86816109b9565b8114610a9157600080fd5b50565b600081359050610aa381610a7d565b92915050565b600060208284031215610abf57610abe6109ed565b5b6000610acd84828501610a94565b91505092915050565b6000819050919050565b6000610afb610af6610af1846109f2565b610ad6565b6109f2565b9050919050565b6000610b0d82610ae0565b9050919050565b6000610b1f82610b02565b9050919050565b610b2f81610b14565b82525050565b6000602082019050610b4a6000830184610b26565b92915050565b610b5981610a12565b82525050565b6000602082019050610b746000830184610b50565b92915050565b600081519050610b8981610a7d565b92915050565b600060208284031215610ba557610ba46109ed565b5b6000610bb384828501610b7a565b91505092915050565b6000604082019050610bd16000830185610b50565b610bde60208301846109c3565b9392505050565b60008115159050919050565b610bfa81610be5565b8114610c0557600080fd5b50565b600081519050610c1781610bf1565b92915050565b600060208284031215610c3357610c326109ed565b5b6000610c4184828501610c08565b91505092915050565b7f4e487b7100000000000000000000000000000000000000000000000000000000600052601160045260246000fd5b6000610c84826109b9565b9150610c8f836109b9565b9250828201905080821115610ca757610ca6610c4a565b5b92915050565b6000610cb8826109b9565b9150610cc3836109b9565b9250828202610cd1816109b9565b91508282048414831517610ce857610ce7610c4a565b5b509291505056fea2646970667358221220ee1f017fb8f8ef4b1716d8e725e0a25c28e501127fd71ca2bb626f8e440e010664736f6c634300081b0033",
  "linkReferences": {},
  "deployedLinkReferences": {}
}